{
  "_format": "hh-sol-artifact-1",
  "contractName": "NFT",
  "sourceName": "contracts/NFT.sol",
  "abi": [
    {
      "inputs": [
        {
          "internalType": "address",
          "name": "marketplaceAddress",
          "type": "address"
        }
      ],
      "stateMutability": "nonpayable",
      "type": "constructor"
    },
    {
      "anonymous": false,
      "inputs": [
        {
          "indexed": true,
          "internalType": "address",
          "name": "owner",
          "type": "address"
        },
        {
          "indexed": true,
          "internalType": "address",
          "name": "approved",
          "type": "address"
        },
        {
          "indexed": true,
          "internalType": "uint256",
          "name": "tokenId",
          "type": "uint256"
        }
      ],
      "name": "Approval",
      "type": "event"
    },
    {
      "anonymous": false,
      "inputs": [
        {
          "indexed": true,
          "internalType": "address",
          "name": "owner",
          "type": "address"
        },
        {
          "indexed": true,
          "internalType": "address",
          "name": "operator",
          "type": "address"
        },
        {
          "indexed": false,
          "internalType": "bool",
          "name": "approved",
          "type": "bool"
        }
      ],
      "name": "ApprovalForAll",
      "type": "event"
    },
    {
      "anonymous": false,
      "inputs": [
        {
          "indexed": true,
          "internalType": "address",
          "name": "owner",
          "type": "address"
        },
        {
          "indexed": true,
          "internalType": "uint256",
          "name": "tokenId",
          "type": "uint256"
        }
      ],
      "name": "TokenCreated",
      "type": "event"
    },
    {
      "anonymous": false,
      "inputs": [
        {
          "indexed": true,
          "internalType": "address",
          "name": "from",
          "type": "address"
        },
        {
          "indexed": true,
          "internalType": "address",
          "name": "to",
          "type": "address"
        },
        {
          "indexed": true,
          "internalType": "uint256",
          "name": "tokenId",
          "type": "uint256"
        }
      ],
      "name": "Transfer",
      "type": "event"
    },
    {
      "inputs": [],
      "name": "_tokenIds",
      "outputs": [
        {
          "internalType": "uint256",
          "name": "_value",
          "type": "uint256"
        }
      ],
      "stateMutability": "view",
      "type": "function"
    },
    {
      "inputs": [
        {
          "internalType": "address",
          "name": "to",
          "type": "address"
        },
        {
          "internalType": "uint256",
          "name": "tokenId",
          "type": "uint256"
        }
      ],
      "name": "approve",
      "outputs": [],
      "stateMutability": "nonpayable",
      "type": "function"
    },
    {
      "inputs": [
        {
          "internalType": "address",
          "name": "owner",
          "type": "address"
        }
      ],
      "name": "balanceOf",
      "outputs": [
        {
          "internalType": "uint256",
          "name": "",
          "type": "uint256"
        }
      ],
      "stateMutability": "view",
      "type": "function"
    },
    {
      "inputs": [
        {
          "internalType": "string",
          "name": "tokenURI",
          "type": "string"
        }
      ],
      "name": "createToken",
      "outputs": [
        {
          "internalType": "uint256",
          "name": "",
          "type": "uint256"
        }
      ],
      "stateMutability": "nonpayable",
      "type": "function"
    },
    {
      "inputs": [
        {
          "internalType": "uint256",
          "name": "tokenId",
          "type": "uint256"
        }
      ],
      "name": "getApproved",
      "outputs": [
        {
          "internalType": "address",
          "name": "",
          "type": "address"
        }
      ],
      "stateMutability": "view",
      "type": "function"
    },
    {
      "inputs": [
        {
          "internalType": "address",
          "name": "owner",
          "type": "address"
        },
        {
          "internalType": "address",
          "name": "operator",
          "type": "address"
        }
      ],
      "name": "isApprovedForAll",
      "outputs": [
        {
          "internalType": "bool",
          "name": "",
          "type": "bool"
        }
      ],
      "stateMutability": "view",
      "type": "function"
    },
    {
      "inputs": [],
      "name": "name",
      "outputs": [
        {
          "internalType": "string",
          "name": "",
          "type": "string"
        }
      ],
      "stateMutability": "view",
      "type": "function"
    },
    {
      "inputs": [
        {
          "internalType": "uint256",
          "name": "tokenId",
          "type": "uint256"
        }
      ],
      "name": "ownerOf",
      "outputs": [
        {
          "internalType": "address",
          "name": "",
          "type": "address"
        }
      ],
      "stateMutability": "view",
      "type": "function"
    },
    {
      "inputs": [
        {
          "internalType": "address",
          "name": "from",
          "type": "address"
        },
        {
          "internalType": "address",
          "name": "to",
          "type": "address"
        },
        {
          "internalType": "uint256",
          "name": "tokenId",
          "type": "uint256"
        }
      ],
      "name": "safeTransferFrom",
      "outputs": [],
      "stateMutability": "nonpayable",
      "type": "function"
    },
    {
      "inputs": [
        {
          "internalType": "address",
          "name": "from",
          "type": "address"
        },
        {
          "internalType": "address",
          "name": "to",
          "type": "address"
        },
        {
          "internalType": "uint256",
          "name": "tokenId",
          "type": "uint256"
        },
        {
          "internalType": "bytes",
          "name": "data",
          "type": "bytes"
        }
      ],
      "name": "safeTransferFrom",
      "outputs": [],
      "stateMutability": "nonpayable",
      "type": "function"
    },
    {
      "inputs": [
        {
          "internalType": "address",
          "name": "operator",
          "type": "address"
        },
        {
          "internalType": "bool",
          "name": "approved",
          "type": "bool"
        }
      ],
      "name": "setApprovalForAll",
      "outputs": [],
      "stateMutability": "nonpayable",
      "type": "function"
    },
    {
      "inputs": [
        {
          "internalType": "bytes4",
          "name": "interfaceId",
          "type": "bytes4"
        }
      ],
      "name": "supportsInterface",
      "outputs": [
        {
          "internalType": "bool",
          "name": "",
          "type": "bool"
        }
      ],
      "stateMutability": "view",
      "type": "function"
    },
    {
      "inputs": [],
      "name": "symbol",
      "outputs": [
        {
          "internalType": "string",
          "name": "",
          "type": "string"
        }
      ],
      "stateMutability": "view",
      "type": "function"
    },
    {
      "inputs": [
        {
          "internalType": "uint256",
          "name": "tokenId",
          "type": "uint256"
        }
      ],
      "name": "tokenURI",
      "outputs": [
        {
          "internalType": "string",
          "name": "",
          "type": "string"
        }
      ],
      "stateMutability": "view",
      "type": "function"
    },
    {
      "inputs": [
        {
          "internalType": "address",
          "name": "from",
          "type": "address"
        },
        {
          "internalType": "address",
          "name": "to",
          "type": "address"
        },
        {
          "internalType": "uint256",
          "name": "tokenId",
          "type": "uint256"
        }
      ],
      "name": "transferFrom",
      "outputs": [],
      "stateMutability": "nonpayable",
      "type": "function"
    }
  ],
  "bytecode": "0x60806040523480156200001157600080fd5b5060405162002c1a38038062002c1a833981810160405281019062000037919062000239565b6040518060400160405280601081526020017f4d657461766572736520546f6b656e73000000000000000000000000000000008152506040518060400160405280600381526020017f4d545400000000000000000000000000000000000000000000000000000000008152508160009080519060200190620000bb9291906200011f565b508060019080519060200190620000d49291906200011f565b50505080600860006101000a81548173ffffffffffffffffffffffffffffffffffffffff021916908373ffffffffffffffffffffffffffffffffffffffff16021790555050620002d0565b8280546200012d906200029a565b90600052602060002090601f0160209004810192826200015157600085556200019d565b82601f106200016c57805160ff19168380011785556200019d565b828001600101855582156200019d579182015b828111156200019c5782518255916020019190600101906200017f565b5b509050620001ac9190620001b0565b5090565b5b80821115620001cb576000816000905550600101620001b1565b5090565b600080fd5b600073ffffffffffffffffffffffffffffffffffffffff82169050919050565b60006200020182620001d4565b9050919050565b6200021381620001f4565b81146200021f57600080fd5b50565b600081519050620002338162000208565b92915050565b600060208284031215620002525762000251620001cf565b5b6000620002628482850162000222565b91505092915050565b7f4e487b7100000000000000000000000000000000000000000000000000000000600052602260045260246000fd5b60006002820490506001821680620002b357607f821691505b60208210811415620002ca57620002c96200026b565b5b50919050565b61293a80620002e06000396000f3fe608060405234801561001057600080fd5b50600436106100f55760003560e01c80636352211e11610097578063aa46a40011610066578063aa46a40014610296578063b88d4fde146102b4578063c87b56dd146102d0578063e985e9c514610300576100f5565b80636352211e146101fc57806370a082311461022c57806395d89b411461025c578063a22cb4651461027a576100f5565b8063095ea7b3116100d3578063095ea7b31461017857806323b872dd1461019457806342842e0e146101b057806345576f94146101cc576100f5565b806301ffc9a7146100fa57806306fdde031461012a578063081812fc14610148575b600080fd5b610114600480360381019061010f919061191d565b610330565b6040516101219190611965565b60405180910390f35b610132610412565b60405161013f9190611a19565b60405180910390f35b610162600480360381019061015d9190611a71565b6104a4565b60405161016f9190611adf565b60405180910390f35b610192600480360381019061018d9190611b26565b6104ea565b005b6101ae60048036038101906101a99190611b66565b610602565b005b6101ca60048036038101906101c59190611b66565b610662565b005b6101e660048036038101906101e19190611cee565b610682565b6040516101f39190611d46565b60405180910390f35b61021660048036038101906102119190611a71565b61072a565b6040516102239190611adf565b60405180910390f35b61024660048036038101906102419190611d61565b6107dc565b6040516102539190611d46565b60405180910390f35b610264610894565b6040516102719190611a19565b60405180910390f35b610294600480360381019061028f9190611dba565b610926565b005b61029e61093c565b6040516102ab9190611d46565b60405180910390f35b6102ce60048036038101906102c99190611e9b565b610948565b005b6102ea60048036038101906102e59190611a71565b6109aa565b6040516102f79190611a19565b60405180910390f35b61031a60048036038101906103159190611f1e565b610abd565b6040516103279190611965565b60405180910390f35b60007f80ac58cd000000000000000000000000000000000000000000000000000000007bffffffffffffffffffffffffffffffffffffffffffffffffffffffff1916827bffffffffffffffffffffffffffffffffffffffffffffffffffffffff191614806103fb57507f5b5e139f000000000000000000000000000000000000000000000000000000007bffffffffffffffffffffffffffffffffffffffffffffffffffffffff1916827bffffffffffffffffffffffffffffffffffffffffffffffffffffffff1916145b8061040b575061040a82610b51565b5b9050919050565b60606000805461042190611f8d565b80601f016020809104026020016040519081016040528092919081815260200182805461044d90611f8d565b801561049a5780601f1061046f5761010080835404028352916020019161049a565b820191906000526020600020905b81548152906001019060200180831161047d57829003601f168201915b5050505050905090565b60006104af82610bbb565b6004600083815260200190815260200160002060009054906101000a900473ffffffffffffffffffffffffffffffffffffffff169050919050565b60006104f58261072a565b90508073ffffffffffffffffffffffffffffffffffffffff168373ffffffffffffffffffffffffffffffffffffffff161415610566576040517f08c379a000000000000000000000000000000000000000000000000000000000815260040161055d90612031565b60405180910390fd5b8073ffffffffffffffffffffffffffffffffffffffff16610585610c06565b73ffffffffffffffffffffffffffffffffffffffff1614806105b457506105b3816105ae610c06565b610abd565b5b6105f3576040517f08c379a00000000000000000000000000000000000000000000000000000000081526004016105ea906120c3565b60405180910390fd5b6105fd8383610c0e565b505050565b61061361060d610c06565b82610cc7565b610652576040517f08c379a000000000000000000000000000000000000000000000000000000000815260040161064990612155565b60405180910390fd5b61065d838383610d5c565b505050565b61067d83838360405180602001604052806000815250610948565b505050565b600061068e6007610fc3565b600061069a6007610fd9565b90506106a63382610fe7565b6106b081846111c1565b6106dd600860009054906101000a900473ffffffffffffffffffffffffffffffffffffffff166001610926565b803373ffffffffffffffffffffffffffffffffffffffff167f1cef2b4ec7f129e441c961eb4fae22fd3131868db6be990c6f065f35b6b53cf360405160405180910390a380915050919050565b6000806002600084815260200190815260200160002060009054906101000a900473ffffffffffffffffffffffffffffffffffffffff169050600073ffffffffffffffffffffffffffffffffffffffff168173ffffffffffffffffffffffffffffffffffffffff1614156107d3576040517f08c379a00000000000000000000000000000000000000000000000000000000081526004016107ca906121c1565b60405180910390fd5b80915050919050565b60008073ffffffffffffffffffffffffffffffffffffffff168273ffffffffffffffffffffffffffffffffffffffff16141561084d576040517f08c379a000000000000000000000000000000000000000000000000000000000815260040161084490612253565b60405180910390fd5b600360008373ffffffffffffffffffffffffffffffffffffffff1673ffffffffffffffffffffffffffffffffffffffff168152602001908152602001600020549050919050565b6060600180546108a390611f8d565b80601f01602080910402602001604051908101604052809291908181526020018280546108cf90611f8d565b801561091c5780601f106108f15761010080835404028352916020019161091c565b820191906000526020600020905b8154815290600101906020018083116108ff57829003601f168201915b5050505050905090565b610938610931610c06565b8383611235565b5050565b60078060000154905081565b610959610953610c06565b83610cc7565b610998576040517f08c379a000000000000000000000000000000000000000000000000000000000815260040161098f90612155565b60405180910390fd5b6109a4848484846113a2565b50505050565b60606109b582610bbb565b60006006600084815260200190815260200160002080546109d590611f8d565b80601f0160208091040260200160405190810160405280929190818152602001828054610a0190611f8d565b8015610a4e5780601f10610a2357610100808354040283529160200191610a4e565b820191906000526020600020905b815481529060010190602001808311610a3157829003601f168201915b505050505090506000610a5f6113fe565b9050600081511415610a75578192505050610ab8565b600082511115610aaa578082604051602001610a929291906122af565b60405160208183030381529060405292505050610ab8565b610ab384611415565b925050505b919050565b6000600560008473ffffffffffffffffffffffffffffffffffffffff1673ffffffffffffffffffffffffffffffffffffffff16815260200190815260200160002060008373ffffffffffffffffffffffffffffffffffffffff1673ffffffffffffffffffffffffffffffffffffffff16815260200190815260200160002060009054906101000a900460ff16905092915050565b60007f01ffc9a7000000000000000000000000000000000000000000000000000000007bffffffffffffffffffffffffffffffffffffffffffffffffffffffff1916827bffffffffffffffffffffffffffffffffffffffffffffffffffffffff1916149050919050565b610bc48161147d565b610c03576040517f08c379a0000000000000000000000000000000000000000000000000000000008152600401610bfa906121c1565b60405180910390fd5b50565b600033905090565b816004600083815260200190815260200160002060006101000a81548173ffffffffffffffffffffffffffffffffffffffff021916908373ffffffffffffffffffffffffffffffffffffffff160217905550808273ffffffffffffffffffffffffffffffffffffffff16610c818361072a565b73ffffffffffffffffffffffffffffffffffffffff167f8c5be1e5ebec7d5bd14f71427d1e84f3dd0314c0f7b2291e5b200ac8c7c3b92560405160405180910390a45050565b600080610cd38361072a565b90508073ffffffffffffffffffffffffffffffffffffffff168473ffffffffffffffffffffffffffffffffffffffff161480610d155750610d148185610abd565b5b80610d5357508373ffffffffffffffffffffffffffffffffffffffff16610d3b846104a4565b73ffffffffffffffffffffffffffffffffffffffff16145b91505092915050565b8273ffffffffffffffffffffffffffffffffffffffff16610d7c8261072a565b73ffffffffffffffffffffffffffffffffffffffff1614610dd2576040517f08c379a0000000000000000000000000000000000000000000000000000000008152600401610dc990612345565b60405180910390fd5b600073ffffffffffffffffffffffffffffffffffffffff168273ffffffffffffffffffffffffffffffffffffffff161415610e42576040517f08c379a0000000000000000000000000000000000000000000000000000000008152600401610e39906123d7565b60405180910390fd5b610e4d8383836114e9565b610e58600082610c0e565b6001600360008573ffffffffffffffffffffffffffffffffffffffff1673ffffffffffffffffffffffffffffffffffffffff1681526020019081526020016000206000828254610ea89190612426565b925050819055506001600360008473ffffffffffffffffffffffffffffffffffffffff1673ffffffffffffffffffffffffffffffffffffffff1681526020019081526020016000206000828254610eff919061245a565b92505081905550816002600083815260200190815260200160002060006101000a81548173ffffffffffffffffffffffffffffffffffffffff021916908373ffffffffffffffffffffffffffffffffffffffff160217905550808273ffffffffffffffffffffffffffffffffffffffff168473ffffffffffffffffffffffffffffffffffffffff167fddf252ad1be2c89b69c2b068fc378daa952ba7f163c4a11628f55a4df523b3ef60405160405180910390a4610fbe8383836114ee565b505050565b6001816000016000828254019250508190555050565b600081600001549050919050565b600073ffffffffffffffffffffffffffffffffffffffff168273ffffffffffffffffffffffffffffffffffffffff161415611057576040517f08c379a000000000000000000000000000000000000000000000000000000000815260040161104e906124fc565b60405180910390fd5b6110608161147d565b156110a0576040517f08c379a000000000000000000000000000000000000000000000000000000000815260040161109790612568565b60405180910390fd5b6110ac600083836114e9565b6001600360008473ffffffffffffffffffffffffffffffffffffffff1673ffffffffffffffffffffffffffffffffffffffff16815260200190815260200160002060008282546110fc919061245a565b92505081905550816002600083815260200190815260200160002060006101000a81548173ffffffffffffffffffffffffffffffffffffffff021916908373ffffffffffffffffffffffffffffffffffffffff160217905550808273ffffffffffffffffffffffffffffffffffffffff16600073ffffffffffffffffffffffffffffffffffffffff167fddf252ad1be2c89b69c2b068fc378daa952ba7f163c4a11628f55a4df523b3ef60405160405180910390a46111bd600083836114ee565b5050565b6111ca8261147d565b611209576040517f08c379a0000000000000000000000000000000000000000000000000000000008152600401611200906125fa565b60405180910390fd5b8060066000848152602001908152602001600020908051906020019061123092919061180e565b505050565b8173ffffffffffffffffffffffffffffffffffffffff168373ffffffffffffffffffffffffffffffffffffffff1614156112a4576040517f08c379a000000000000000000000000000000000000000000000000000000000815260040161129b90612666565b60405180910390fd5b80600560008573ffffffffffffffffffffffffffffffffffffffff1673ffffffffffffffffffffffffffffffffffffffff16815260200190815260200160002060008473ffffffffffffffffffffffffffffffffffffffff1673ffffffffffffffffffffffffffffffffffffffff16815260200190815260200160002060006101000a81548160ff0219169083151502179055508173ffffffffffffffffffffffffffffffffffffffff168373ffffffffffffffffffffffffffffffffffffffff167f17307eab39ab6107e8899845ad3d59bd9653f200f220920489ca2b5937696c31836040516113959190611965565b60405180910390a3505050565b6113ad848484610d5c565b6113b9848484846114f3565b6113f8576040517f08c379a00000000000000000000000000000000000000000000000000000000081526004016113ef906126f8565b60405180910390fd5b50505050565b606060405180602001604052806000815250905090565b606061142082610bbb565b600061142a6113fe565b9050600081511161144a5760405180602001604052806000815250611475565b806114548461168a565b6040516020016114659291906122af565b6040516020818303038152906040525b915050919050565b60008073ffffffffffffffffffffffffffffffffffffffff166002600084815260200190815260200160002060009054906101000a900473ffffffffffffffffffffffffffffffffffffffff1673ffffffffffffffffffffffffffffffffffffffff1614159050919050565b505050565b505050565b60006115148473ffffffffffffffffffffffffffffffffffffffff166117eb565b1561167d578373ffffffffffffffffffffffffffffffffffffffff1663150b7a0261153d610c06565b8786866040518563ffffffff1660e01b815260040161155f949392919061276d565b602060405180830381600087803b15801561157957600080fd5b505af19250505080156115aa57506040513d601f19601f820116820180604052508101906115a791906127ce565b60015b61162d573d80600081146115da576040519150601f19603f3d011682016040523d82523d6000602084013e6115df565b606091505b50600081511415611625576040517f08c379a000000000000000000000000000000000000000000000000000000000815260040161161c906126f8565b60405180910390fd5b805181602001fd5b63150b7a0260e01b7bffffffffffffffffffffffffffffffffffffffffffffffffffffffff1916817bffffffffffffffffffffffffffffffffffffffffffffffffffffffff191614915050611682565b600190505b949350505050565b606060008214156116d2576040518060400160405280600181526020017f300000000000000000000000000000000000000000000000000000000000000081525090506117e6565b600082905060005b600082146117045780806116ed906127fb565b915050600a826116fd9190612873565b91506116da565b60008167ffffffffffffffff8111156117205761171f611bc3565b5b6040519080825280601f01601f1916602001820160405280156117525781602001600182028036833780820191505090505b5090505b600085146117df5760018261176b9190612426565b9150600a8561177a91906128a4565b6030611786919061245a565b60f81b81838151811061179c5761179b6128d5565b5b60200101907effffffffffffffffffffffffffffffffffffffffffffffffffffffffffffff1916908160001a905350600a856117d89190612873565b9450611756565b8093505050505b919050565b6000808273ffffffffffffffffffffffffffffffffffffffff163b119050919050565b82805461181a90611f8d565b90600052602060002090601f01602090048101928261183c5760008555611883565b82601f1061185557805160ff1916838001178555611883565b82800160010185558215611883579182015b82811115611882578251825591602001919060010190611867565b5b5090506118909190611894565b5090565b5b808211156118ad576000816000905550600101611895565b5090565b6000604051905090565b600080fd5b600080fd5b60007fffffffff0000000000000000000000000000000000000000000000000000000082169050919050565b6118fa816118c5565b811461190557600080fd5b50565b600081359050611917816118f1565b92915050565b600060208284031215611933576119326118bb565b5b600061194184828501611908565b91505092915050565b60008115159050919050565b61195f8161194a565b82525050565b600060208201905061197a6000830184611956565b92915050565b600081519050919050565b600082825260208201905092915050565b60005b838110156119ba57808201518184015260208101905061199f565b838111156119c9576000848401525b50505050565b6000601f19601f8301169050919050565b60006119eb82611980565b6119f5818561198b565b9350611a0581856020860161199c565b611a0e816119cf565b840191505092915050565b60006020820190508181036000830152611a3381846119e0565b905092915050565b6000819050919050565b611a4e81611a3b565b8114611a5957600080fd5b50565b600081359050611a6b81611a45565b92915050565b600060208284031215611a8757611a866118bb565b5b6000611a9584828501611a5c565b91505092915050565b600073ffffffffffffffffffffffffffffffffffffffff82169050919050565b6000611ac982611a9e565b9050919050565b611ad981611abe565b82525050565b6000602082019050611af46000830184611ad0565b92915050565b611b0381611abe565b8114611b0e57600080fd5b50565b600081359050611b2081611afa565b92915050565b60008060408385031215611b3d57611b3c6118bb565b5b6000611b4b85828601611b11565b9250506020611b5c85828601611a5c565b9150509250929050565b600080600060608486031215611b7f57611b7e6118bb565b5b6000611b8d86828701611b11565b9350506020611b9e86828701611b11565b9250506040611baf86828701611a5c565b9150509250925092565b600080fd5b600080fd5b7f4e487b7100000000000000000000000000000000000000000000000000000000600052604160045260246000fd5b611bfb826119cf565b810181811067ffffffffffffffff82111715611c1a57611c19611bc3565b5b80604052505050565b6000611c2d6118b1565b9050611c398282611bf2565b919050565b600067ffffffffffffffff821115611c5957611c58611bc3565b5b611c62826119cf565b9050602081019050919050565b82818337600083830152505050565b6000611c91611c8c84611c3e565b611c23565b905082815260208101848484011115611cad57611cac611bbe565b5b611cb8848285611c6f565b509392505050565b600082601f830112611cd557611cd4611bb9565b5b8135611ce5848260208601611c7e565b91505092915050565b600060208284031215611d0457611d036118bb565b5b600082013567ffffffffffffffff811115611d2257611d216118c0565b5b611d2e84828501611cc0565b91505092915050565b611d4081611a3b565b82525050565b6000602082019050611d5b6000830184611d37565b92915050565b600060208284031215611d7757611d766118bb565b5b6000611d8584828501611b11565b91505092915050565b611d978161194a565b8114611da257600080fd5b50565b600081359050611db481611d8e565b92915050565b60008060408385031215611dd157611dd06118bb565b5b6000611ddf85828601611b11565b9250506020611df085828601611da5565b9150509250929050565b600067ffffffffffffffff821115611e1557611e14611bc3565b5b611e1e826119cf565b9050602081019050919050565b6000611e3e611e3984611dfa565b611c23565b905082815260208101848484011115611e5a57611e59611bbe565b5b611e65848285611c6f565b509392505050565b600082601f830112611e8257611e81611bb9565b5b8135611e92848260208601611e2b565b91505092915050565b60008060008060808587031215611eb557611eb46118bb565b5b6000611ec387828801611b11565b9450506020611ed487828801611b11565b9350506040611ee587828801611a5c565b925050606085013567ffffffffffffffff811115611f0657611f056118c0565b5b611f1287828801611e6d565b91505092959194509250565b60008060408385031215611f3557611f346118bb565b5b6000611f4385828601611b11565b9250506020611f5485828601611b11565b9150509250929050565b7f4e487b7100000000000000000000000000000000000000000000000000000000600052602260045260246000fd5b60006002820490506001821680611fa557607f821691505b60208210811415611fb957611fb8611f5e565b5b50919050565b7f4552433732313a20617070726f76616c20746f2063757272656e74206f776e6560008201527f7200000000000000000000000000000000000000000000000000000000000000602082015250565b600061201b60218361198b565b915061202682611fbf565b604082019050919050565b6000602082019050818103600083015261204a8161200e565b9050919050565b7f4552433732313a20617070726f76652063616c6c6572206973206e6f7420746f60008201527f6b656e206f776e6572206e6f7220617070726f76656420666f7220616c6c0000602082015250565b60006120ad603e8361198b565b91506120b882612051565b604082019050919050565b600060208201905081810360008301526120dc816120a0565b9050919050565b7f4552433732313a2063616c6c6572206973206e6f7420746f6b656e206f776e6560008201527f72206e6f7220617070726f766564000000000000000000000000000000000000602082015250565b600061213f602e8361198b565b915061214a826120e3565b604082019050919050565b6000602082019050818103600083015261216e81612132565b9050919050565b7f4552433732313a20696e76616c696420746f6b656e2049440000000000000000600082015250565b60006121ab60188361198b565b91506121b682612175565b602082019050919050565b600060208201905081810360008301526121da8161219e565b9050919050565b7f4552433732313a2061646472657373207a65726f206973206e6f74206120766160008201527f6c6964206f776e65720000000000000000000000000000000000000000000000602082015250565b600061223d60298361198b565b9150612248826121e1565b604082019050919050565b6000602082019050818103600083015261226c81612230565b9050919050565b600081905092915050565b600061228982611980565b6122938185612273565b93506122a381856020860161199c565b80840191505092915050565b60006122bb828561227e565b91506122c7828461227e565b91508190509392505050565b7f4552433732313a207472616e736665722066726f6d20696e636f72726563742060008201527f6f776e6572000000000000000000000000000000000000000000000000000000602082015250565b600061232f60258361198b565b915061233a826122d3565b604082019050919050565b6000602082019050818103600083015261235e81612322565b9050919050565b7f4552433732313a207472616e7366657220746f20746865207a65726f2061646460008201527f7265737300000000000000000000000000000000000000000000000000000000602082015250565b60006123c160248361198b565b91506123cc82612365565b604082019050919050565b600060208201905081810360008301526123f0816123b4565b9050919050565b7f4e487b7100000000000000000000000000000000000000000000000000000000600052601160045260246000fd5b600061243182611a3b565b915061243c83611a3b565b92508282101561244f5761244e6123f7565b5b828203905092915050565b600061246582611a3b565b915061247083611a3b565b9250827fffffffffffffffffffffffffffffffffffffffffffffffffffffffffffffffff038211156124a5576124a46123f7565b5b828201905092915050565b7f4552433732313a206d696e7420746f20746865207a65726f2061646472657373600082015250565b60006124e660208361198b565b91506124f1826124b0565b602082019050919050565b60006020820190508181036000830152612515816124d9565b9050919050565b7f4552433732313a20746f6b656e20616c7265616479206d696e74656400000000600082015250565b6000612552601c8361198b565b915061255d8261251c565b602082019050919050565b6000602082019050818103600083015261258181612545565b9050919050565b7f45524337323155524953746f726167653a2055524920736574206f66206e6f6e60008201527f6578697374656e7420746f6b656e000000000000000000000000000000000000602082015250565b60006125e4602e8361198b565b91506125ef82612588565b604082019050919050565b60006020820190508181036000830152612613816125d7565b9050919050565b7f4552433732313a20617070726f766520746f2063616c6c657200000000000000600082015250565b600061265060198361198b565b915061265b8261261a565b602082019050919050565b6000602082019050818103600083015261267f81612643565b9050919050565b7f4552433732313a207472616e7366657220746f206e6f6e20455243373231526560008201527f63656976657220696d706c656d656e7465720000000000000000000000000000602082015250565b60006126e260328361198b565b91506126ed82612686565b604082019050919050565b60006020820190508181036000830152612711816126d5565b9050919050565b600081519050919050565b600082825260208201905092915050565b600061273f82612718565b6127498185612723565b935061275981856020860161199c565b612762816119cf565b840191505092915050565b60006080820190506127826000830187611ad0565b61278f6020830186611ad0565b61279c6040830185611d37565b81810360608301526127ae8184612734565b905095945050505050565b6000815190506127c8816118f1565b92915050565b6000602082840312156127e4576127e36118bb565b5b60006127f2848285016127b9565b91505092915050565b600061280682611a3b565b91507fffffffffffffffffffffffffffffffffffffffffffffffffffffffffffffffff821415612839576128386123f7565b5b600182019050919050565b7f4e487b7100000000000000000000000000000000000000000000000000000000600052601260045260246000fd5b600061287e82611a3b565b915061288983611a3b565b92508261289957612898612844565b5b828204905092915050565b60006128af82611a3b565b91506128ba83611a3b565b9250826128ca576128c9612844565b5b828206905092915050565b7f4e487b7100000000000000000000000000000000000000000000000000000000600052603260045260246000fdfea26469706673582212202f01fac9c7cbb0d9b94810a2629065d2f579a5f4868b780f5594db2f3cb4ed7e64736f6c63430008090033",
  "linkReferences": {},
  "deployedLinkReferences": {}
}