{
  "_format": "hh-sol-artifact-1",
  "contractName": "NFTMarket",
  "sourceName": "contracts/NFTMarket.sol",
  "abi": [
    {
      "inputs": [],
      "stateMutability": "nonpayable",
      "type": "constructor"
    },
    {
      "anonymous": false,
      "inputs": [
        {
          "indexed": true,
          "internalType": "uint256",
          "name": "itemId",
          "type": "uint256"
        },
        {
          "indexed": true,
          "internalType": "address",
          "name": "nftContract",
          "type": "address"
        },
        {
          "indexed": true,
          "internalType": "uint256",
          "name": "tokenId",
          "type": "uint256"
        },
        {
          "indexed": false,
          "internalType": "address",
          "name": "seller",
          "type": "address"
        },
        {
          "indexed": false,
          "internalType": "address",
          "name": "owner",
          "type": "address"
        },
        {
          "indexed": false,
          "internalType": "uint256",
          "name": "price",
          "type": "uint256"
        },
        {
          "indexed": false,
          "internalType": "bool",
          "name": "sold",
          "type": "bool"
        }
      ],
      "name": "MarketItemCreated",
      "type": "event"
    },
    {
      "inputs": [
        {
          "internalType": "uint256",
          "name": "itemId",
          "type": "uint256"
        }
      ],
      "name": "createBid",
      "outputs": [],
      "stateMutability": "payable",
      "type": "function"
    },
    {
      "inputs": [
        {
          "internalType": "address",
          "name": "nftContract",
          "type": "address"
        },
        {
          "internalType": "uint256",
          "name": "tokenId",
          "type": "uint256"
        },
        {
          "internalType": "uint256",
          "name": "price",
          "type": "uint256"
        }
      ],
      "name": "createMarketItem",
      "outputs": [],
      "stateMutability": "payable",
      "type": "function"
    },
    {
      "inputs": [
        {
          "internalType": "address",
          "name": "nftContract",
          "type": "address"
        },
        {
          "internalType": "uint256",
          "name": "itemId",
          "type": "uint256"
        },
        {
          "internalType": "address",
          "name": "buyer",
          "type": "address"
        }
      ],
      "name": "createMarketSale",
      "outputs": [],
      "stateMutability": "payable",
      "type": "function"
    },
    {
      "inputs": [
        {
          "internalType": "uint256",
          "name": "itemId",
          "type": "uint256"
        }
      ],
      "name": "fetchBidsOfItem",
      "outputs": [
        {
          "components": [
            {
              "internalType": "uint256",
              "name": "itemId",
              "type": "uint256"
            },
            {
              "internalType": "address",
              "name": "buyer",
              "type": "address"
            },
            {
              "internalType": "uint256",
              "name": "value",
              "type": "uint256"
            }
          ],
          "internalType": "struct NFTMarket.Bid[]",
          "name": "",
          "type": "tuple[]"
        }
      ],
      "stateMutability": "view",
      "type": "function"
    },
    {
      "inputs": [],
      "name": "fetchItemsCreated",
      "outputs": [
        {
          "components": [
            {
              "internalType": "uint256",
              "name": "itemId",
              "type": "uint256"
            },
            {
              "internalType": "address",
              "name": "nftContract",
              "type": "address"
            },
            {
              "internalType": "uint256",
              "name": "tokenId",
              "type": "uint256"
            },
            {
              "internalType": "address payable",
              "name": "seller",
              "type": "address"
            },
            {
              "internalType": "address payable",
              "name": "owner",
              "type": "address"
            },
            {
              "internalType": "uint256",
              "name": "price",
              "type": "uint256"
            },
            {
              "internalType": "bool",
              "name": "sold",
              "type": "bool"
            }
          ],
          "internalType": "struct NFTMarket.MarketItem[]",
          "name": "",
          "type": "tuple[]"
        }
      ],
      "stateMutability": "view",
      "type": "function"
    },
    {
      "inputs": [],
      "name": "fetchMarketItems",
      "outputs": [
        {
          "components": [
            {
              "internalType": "uint256",
              "name": "itemId",
              "type": "uint256"
            },
            {
              "internalType": "address",
              "name": "nftContract",
              "type": "address"
            },
            {
              "internalType": "uint256",
              "name": "tokenId",
              "type": "uint256"
            },
            {
              "internalType": "address payable",
              "name": "seller",
              "type": "address"
            },
            {
              "internalType": "address payable",
              "name": "owner",
              "type": "address"
            },
            {
              "internalType": "uint256",
              "name": "price",
              "type": "uint256"
            },
            {
              "internalType": "bool",
              "name": "sold",
              "type": "bool"
            }
          ],
          "internalType": "struct NFTMarket.MarketItem[]",
          "name": "",
          "type": "tuple[]"
        }
      ],
      "stateMutability": "view",
      "type": "function"
    },
    {
      "inputs": [],
      "name": "fetchMyNfts",
      "outputs": [
        {
          "components": [
            {
              "internalType": "uint256",
              "name": "itemId",
              "type": "uint256"
            },
            {
              "internalType": "address",
              "name": "nftContract",
              "type": "address"
            },
            {
              "internalType": "uint256",
              "name": "tokenId",
              "type": "uint256"
            },
            {
              "internalType": "address payable",
              "name": "seller",
              "type": "address"
            },
            {
              "internalType": "address payable",
              "name": "owner",
              "type": "address"
            },
            {
              "internalType": "uint256",
              "name": "price",
              "type": "uint256"
            },
            {
              "internalType": "bool",
              "name": "sold",
              "type": "bool"
            }
          ],
          "internalType": "struct NFTMarket.MarketItem[]",
          "name": "",
          "type": "tuple[]"
        }
      ],
      "stateMutability": "view",
      "type": "function"
    },
    {
      "inputs": [
        {
          "internalType": "uint256",
          "name": "itemId",
          "type": "uint256"
        }
      ],
      "name": "getItemById",
      "outputs": [
        {
          "components": [
            {
              "internalType": "uint256",
              "name": "itemId",
              "type": "uint256"
            },
            {
              "internalType": "address",
              "name": "nftContract",
              "type": "address"
            },
            {
              "internalType": "uint256",
              "name": "tokenId",
              "type": "uint256"
            },
            {
              "internalType": "address payable",
              "name": "seller",
              "type": "address"
            },
            {
              "internalType": "address payable",
              "name": "owner",
              "type": "address"
            },
            {
              "internalType": "uint256",
              "name": "price",
              "type": "uint256"
            },
            {
              "internalType": "bool",
              "name": "sold",
              "type": "bool"
            }
          ],
          "internalType": "struct NFTMarket.MarketItem",
          "name": "",
          "type": "tuple"
        }
      ],
      "stateMutability": "view",
      "type": "function"
    },
    {
      "inputs": [],
      "name": "getListingPrice",
      "outputs": [
        {
          "internalType": "uint256",
          "name": "",
          "type": "uint256"
        }
      ],
      "stateMutability": "view",
      "type": "function"
    }
  ],
  "bytecode": "0x60806040526658d15e1762800060045534801561001b57600080fd5b50600160008190555033600360006101000a81548173ffffffffffffffffffffffffffffffffffffffff021916908373ffffffffffffffffffffffffffffffffffffffff160217905550612762806100746000396000f3fe6080604052600436106100865760003560e01c8063659dd2b411610059578063659dd2b414610128578063ad4b6c5214610144578063c915de2e14610160578063cd2f07101461019d578063f064c32e146101da57610086565b80630f08efe01461008b578063128ae712146100b657806312e85585146100e157806358eb2df51461010c575b600080fd5b34801561009757600080fd5b506100a0610205565b6040516100ad9190611e3d565b60405180910390f35b3480156100c257600080fd5b506100cb61048c565b6040516100d89190611e3d565b60405180910390f35b3480156100ed57600080fd5b506100f66107f0565b6040516101039190611e6e565b60405180910390f35b61012660048036038101906101219190611ee6565b6107fa565b005b610142600480360381019061013d9190611f39565b610b5c565b005b61015e60048036038101906101599190611f66565b610f35565b005b34801561016c57600080fd5b5061018760048036038101906101829190611f39565b6114cd565b60405161019491906120aa565b60405180910390f35b3480156101a957600080fd5b506101c460048036038101906101bf9190611f39565b611651565b6040516101d1919061215a565b60405180910390f35b3480156101e657600080fd5b506101ef611861565b6040516101fc9190611e3d565b60405180910390f35b606060006102136001611bc5565b905060006102216002611bc5565b61022b6001611bc5565b61023591906121a4565b90506000808267ffffffffffffffff811115610254576102536121d8565b5b60405190808252806020026020018201604052801561028d57816020015b61027a611be9565b8152602001906001900390816102725790505b50905060005b8481101561048157600560006001836102ac9190612207565b815260200190815260200160002060060160009054906101000a900460ff1661046e5760006001826102de9190612207565b90506000600560008381526020019081526020016000209050806040518060e0016040529081600082015481526020016001820160009054906101000a900473ffffffffffffffffffffffffffffffffffffffff1673ffffffffffffffffffffffffffffffffffffffff1673ffffffffffffffffffffffffffffffffffffffff168152602001600282015481526020016003820160009054906101000a900473ffffffffffffffffffffffffffffffffffffffff1673ffffffffffffffffffffffffffffffffffffffff1673ffffffffffffffffffffffffffffffffffffffff1681526020016004820160009054906101000a900473ffffffffffffffffffffffffffffffffffffffff1673ffffffffffffffffffffffffffffffffffffffff1673ffffffffffffffffffffffffffffffffffffffff168152602001600582015481526020016006820160009054906101000a900460ff1615151515815250508486815181106104515761045061225d565b5b60200260200101819052506001856104699190612207565b945050505b80806104799061228c565b915050610293565b508094505050505090565b6060600061049a6001611bc5565b905060008060005b83811015610543573373ffffffffffffffffffffffffffffffffffffffff16600560006001846104d29190612207565b815260200190815260200160002060040160009054906101000a900473ffffffffffffffffffffffffffffffffffffffff1673ffffffffffffffffffffffffffffffffffffffff1614156105305760018361052d9190612207565b92505b808061053b9061228c565b9150506104a2565b5060008267ffffffffffffffff8111156105605761055f6121d8565b5b60405190808252806020026020018201604052801561059957816020015b610586611be9565b81526020019060019003908161057e5790505b50905060005b848110156107e5573373ffffffffffffffffffffffffffffffffffffffff16600560006001846105cf9190612207565b815260200190815260200160002060040160009054906101000a900473ffffffffffffffffffffffffffffffffffffffff1673ffffffffffffffffffffffffffffffffffffffff1614156107d2576000600560006001846106309190612207565b81526020019081526020016000206000015490506000600560008381526020019081526020016000209050806040518060e0016040529081600082015481526020016001820160009054906101000a900473ffffffffffffffffffffffffffffffffffffffff1673ffffffffffffffffffffffffffffffffffffffff1673ffffffffffffffffffffffffffffffffffffffff168152602001600282015481526020016003820160009054906101000a900473ffffffffffffffffffffffffffffffffffffffff1673ffffffffffffffffffffffffffffffffffffffff1673ffffffffffffffffffffffffffffffffffffffff1681526020016004820160009054906101000a900473ffffffffffffffffffffffffffffffffffffffff1673ffffffffffffffffffffffffffffffffffffffff1673ffffffffffffffffffffffffffffffffffffffff168152602001600582015481526020016006820160009054906101000a900460ff1615151515815250508486815181106107b5576107b461225d565b5b60200260200101819052506001856107cd9190612207565b945050505b80806107dd9061228c565b91505061059f565b508094505050505090565b6000600454905090565b60026000541415610840576040517f08c379a000000000000000000000000000000000000000000000000000000000815260040161083790612332565b60405180910390fd5b60026000819055506000811161088b576040517f08c379a00000000000000000000000000000000000000000000000000000000081526004016108829061239e565b60405180910390fd5b60045434146108cf576040517f08c379a00000000000000000000000000000000000000000000000000000000081526004016108c69061240a565b60405180910390fd5b6108d96001611bd3565b60006108e56001611bc5565b90506040518060e001604052808281526020018573ffffffffffffffffffffffffffffffffffffffff1681526020018481526020013373ffffffffffffffffffffffffffffffffffffffff1681526020013373ffffffffffffffffffffffffffffffffffffffff16815260200183815260200160001515815250600560008381526020019081526020016000206000820151816000015560208201518160010160006101000a81548173ffffffffffffffffffffffffffffffffffffffff021916908373ffffffffffffffffffffffffffffffffffffffff1602179055506040820151816002015560608201518160030160006101000a81548173ffffffffffffffffffffffffffffffffffffffff021916908373ffffffffffffffffffffffffffffffffffffffff16021790555060808201518160040160006101000a81548173ffffffffffffffffffffffffffffffffffffffff021916908373ffffffffffffffffffffffffffffffffffffffff16021790555060a0820151816005015560c08201518160060160006101000a81548160ff0219169083151502179055509050508373ffffffffffffffffffffffffffffffffffffffff166323b872dd3330866040518463ffffffff1660e01b8152600401610ac593929190612439565b600060405180830381600087803b158015610adf57600080fd5b505af1158015610af3573d6000803e3d6000fd5b50505050828473ffffffffffffffffffffffffffffffffffffffff16827f045dfa01dcba2b36aba1d3dc4a874f4b0c5d2fbeb8d2c4b34a7d88c8d8f929d13333876000604051610b46949392919061247f565b60405180910390a4506001600081905550505050565b60026000541415610ba2576040517f08c379a0000000000000000000000000000000000000000000000000000000008152600401610b9990612332565b60405180910390fd5b600260008190555080600073ffffffffffffffffffffffffffffffffffffffff166005600083815260200190815260200160002060030160009054906101000a900473ffffffffffffffffffffffffffffffffffffffff1673ffffffffffffffffffffffffffffffffffffffff161415610c51576040517f08c379a0000000000000000000000000000000000000000000000000000000008152600401610c4890612510565b60405180910390fd5b6005600083815260200190815260200160002060040160009054906101000a900473ffffffffffffffffffffffffffffffffffffffff1673ffffffffffffffffffffffffffffffffffffffff163373ffffffffffffffffffffffffffffffffffffffff161415610cf6576040517f08c379a0000000000000000000000000000000000000000000000000000000008152600401610ced9061257c565b60405180910390fd5b60003411610d39576040517f08c379a0000000000000000000000000000000000000000000000000000000008152600401610d30906125e8565b60405180910390fd5b6000805b6006600085815260200190815260200160002080549050811015610e50573373ffffffffffffffffffffffffffffffffffffffff16600660008681526020019081526020016000208281548110610d9757610d9661225d565b5b906000526020600020906003020160010160009054906101000a900473ffffffffffffffffffffffffffffffffffffffff1673ffffffffffffffffffffffffffffffffffffffff161415610e3d5734600660008681526020019081526020016000208281548110610e0b57610e0a61225d565b5b90600052602060002090600302016002016000828254610e2b9190612207565b92505081905550600191505050610f29565b8080610e489061228c565b915050610d3d565b5080610f2757600060405180606001604052808581526020013373ffffffffffffffffffffffffffffffffffffffff168152602001348152509050600660008581526020019081526020016000208190806001815401808255809150506001900390600052602060002090600302016000909190919091506000820151816000015560208201518160010160006101000a81548173ffffffffffffffffffffffffffffffffffffffff021916908373ffffffffffffffffffffffffffffffffffffffff160217905550604082015181600201555050505b505b50600160008190555050565b60026000541415610f7b576040517f08c379a0000000000000000000000000000000000000000000000000000000008152600401610f7290612332565b60405180910390fd5b6002600081905550816005600082815260200190815260200160002060040160009054906101000a900473ffffffffffffffffffffffffffffffffffffffff1673ffffffffffffffffffffffffffffffffffffffff163373ffffffffffffffffffffffffffffffffffffffff1614611028576040517f08c379a000000000000000000000000000000000000000000000000000000000815260040161101f9061267a565b60405180910390fd5b60008060005b6006600087815260200190815260200160002080549050811015611127578473ffffffffffffffffffffffffffffffffffffffff166006600088815260200190815260200160002082815481106110885761108761225d565b5b906000526020600020906003020160010160009054906101000a900473ffffffffffffffffffffffffffffffffffffffff1673ffffffffffffffffffffffffffffffffffffffff16141561111457600192506006600087815260200190815260200160002081815481106110ff576110fe61225d565b5b90600052602060002090600302016002015491505b808061111f9061228c565b91505061102e565b50600115158215151461116f576040517f08c379a00000000000000000000000000000000000000000000000000000000081526004016111669061270c565b60405180910390fd5b6005600086815260200190815260200160002060030160009054906101000a900473ffffffffffffffffffffffffffffffffffffffff1673ffffffffffffffffffffffffffffffffffffffff166108fc829081150290604051600060405180830381858888f193505050501580156111eb573d6000803e3d6000fd5b508573ffffffffffffffffffffffffffffffffffffffff166323b872dd3086886040518463ffffffff1660e01b815260040161122993929190612439565b600060405180830381600087803b15801561124357600080fd5b505af1158015611257573d6000803e3d6000fd5b50505050836005600087815260200190815260200160002060040160006101000a81548173ffffffffffffffffffffffffffffffffffffffff021916908373ffffffffffffffffffffffffffffffffffffffff16021790555060016005600087815260200190815260200160002060060160006101000a81548160ff0219169083151502179055506112e96002611bd3565b600360009054906101000a900473ffffffffffffffffffffffffffffffffffffffff1673ffffffffffffffffffffffffffffffffffffffff166108fc6004549081150290604051600060405180830381858888f19350505050158015611353573d6000803e3d6000fd5b5060005b60066000878152602001908152602001600020805490508110156114bc57600060066000888152602001908152602001600020828154811061139c5761139b61225d565b5b9060005260206000209060030201604051806060016040529081600082015481526020016001820160009054906101000a900473ffffffffffffffffffffffffffffffffffffffff1673ffffffffffffffffffffffffffffffffffffffff1673ffffffffffffffffffffffffffffffffffffffff16815260200160028201548152505090508573ffffffffffffffffffffffffffffffffffffffff16816020015173ffffffffffffffffffffffffffffffffffffffff16146114a857806020015173ffffffffffffffffffffffffffffffffffffffff166108fc82604001519081150290604051600060405180830381858888f193505050501580156114a6573d6000803e3d6000fd5b505b5080806114b49061228c565b915050611357565b505050506001600081905550505050565b606081600073ffffffffffffffffffffffffffffffffffffffff166005600083815260200190815260200160002060030160009054906101000a900473ffffffffffffffffffffffffffffffffffffffff1673ffffffffffffffffffffffffffffffffffffffff161415611576576040517f08c379a000000000000000000000000000000000000000000000000000000000815260040161156d90612510565b60405180910390fd5b60066000848152602001908152602001600020805480602002602001604051908101604052809291908181526020016000905b828210156116455783829060005260206000209060030201604051806060016040529081600082015481526020016001820160009054906101000a900473ffffffffffffffffffffffffffffffffffffffff1673ffffffffffffffffffffffffffffffffffffffff1673ffffffffffffffffffffffffffffffffffffffff168152602001600282015481525050815260200190600101906115a9565b50505050915050919050565b611659611be9565b81600073ffffffffffffffffffffffffffffffffffffffff166005600083815260200190815260200160002060030160009054906101000a900473ffffffffffffffffffffffffffffffffffffffff1673ffffffffffffffffffffffffffffffffffffffff161415611700576040517f08c379a00000000000000000000000000000000000000000000000000000000081526004016116f790612510565b60405180910390fd5b600560008481526020019081526020016000206040518060e0016040529081600082015481526020016001820160009054906101000a900473ffffffffffffffffffffffffffffffffffffffff1673ffffffffffffffffffffffffffffffffffffffff1673ffffffffffffffffffffffffffffffffffffffff168152602001600282015481526020016003820160009054906101000a900473ffffffffffffffffffffffffffffffffffffffff1673ffffffffffffffffffffffffffffffffffffffff1673ffffffffffffffffffffffffffffffffffffffff1681526020016004820160009054906101000a900473ffffffffffffffffffffffffffffffffffffffff1673ffffffffffffffffffffffffffffffffffffffff1673ffffffffffffffffffffffffffffffffffffffff168152602001600582015481526020016006820160009054906101000a900460ff161515151581525050915050919050565b6060600061186f6001611bc5565b905060008060005b83811015611918573373ffffffffffffffffffffffffffffffffffffffff16600560006001846118a79190612207565b815260200190815260200160002060030160009054906101000a900473ffffffffffffffffffffffffffffffffffffffff1673ffffffffffffffffffffffffffffffffffffffff161415611905576001836119029190612207565b92505b80806119109061228c565b915050611877565b5060008267ffffffffffffffff811115611935576119346121d8565b5b60405190808252806020026020018201604052801561196e57816020015b61195b611be9565b8152602001906001900390816119535790505b50905060005b84811015611bba573373ffffffffffffffffffffffffffffffffffffffff16600560006001846119a49190612207565b815260200190815260200160002060030160009054906101000a900473ffffffffffffffffffffffffffffffffffffffff1673ffffffffffffffffffffffffffffffffffffffff161415611ba757600060056000600184611a059190612207565b81526020019081526020016000206000015490506000600560008381526020019081526020016000209050806040518060e0016040529081600082015481526020016001820160009054906101000a900473ffffffffffffffffffffffffffffffffffffffff1673ffffffffffffffffffffffffffffffffffffffff1673ffffffffffffffffffffffffffffffffffffffff168152602001600282015481526020016003820160009054906101000a900473ffffffffffffffffffffffffffffffffffffffff1673ffffffffffffffffffffffffffffffffffffffff1673ffffffffffffffffffffffffffffffffffffffff1681526020016004820160009054906101000a900473ffffffffffffffffffffffffffffffffffffffff1673ffffffffffffffffffffffffffffffffffffffff1673ffffffffffffffffffffffffffffffffffffffff168152602001600582015481526020016006820160009054906101000a900460ff161515151581525050848681518110611b8a57611b8961225d565b5b6020026020010181905250600185611ba29190612207565b945050505b8080611bb29061228c565b915050611974565b508094505050505090565b600081600001549050919050565b6001816000016000828254019250508190555050565b6040518060e0016040528060008152602001600073ffffffffffffffffffffffffffffffffffffffff16815260200160008152602001600073ffffffffffffffffffffffffffffffffffffffff168152602001600073ffffffffffffffffffffffffffffffffffffffff168152602001600081526020016000151581525090565b600081519050919050565b600082825260208201905092915050565b6000819050602082019050919050565b6000819050919050565b611ca981611c96565b82525050565b600073ffffffffffffffffffffffffffffffffffffffff82169050919050565b6000611cda82611caf565b9050919050565b611cea81611ccf565b82525050565b6000611cfb82611caf565b9050919050565b611d0b81611cf0565b82525050565b60008115159050919050565b611d2681611d11565b82525050565b60e082016000820151611d426000850182611ca0565b506020820151611d556020850182611ce1565b506040820151611d686040850182611ca0565b506060820151611d7b6060850182611d02565b506080820151611d8e6080850182611d02565b5060a0820151611da160a0850182611ca0565b5060c0820151611db460c0850182611d1d565b50505050565b6000611dc68383611d2c565b60e08301905092915050565b6000602082019050919050565b6000611dea82611c6a565b611df48185611c75565b9350611dff83611c86565b8060005b83811015611e30578151611e178882611dba565b9750611e2283611dd2565b925050600181019050611e03565b5085935050505092915050565b60006020820190508181036000830152611e578184611ddf565b905092915050565b611e6881611c96565b82525050565b6000602082019050611e836000830184611e5f565b92915050565b600080fd5b611e9781611ccf565b8114611ea257600080fd5b50565b600081359050611eb481611e8e565b92915050565b611ec381611c96565b8114611ece57600080fd5b50565b600081359050611ee081611eba565b92915050565b600080600060608486031215611eff57611efe611e89565b5b6000611f0d86828701611ea5565b9350506020611f1e86828701611ed1565b9250506040611f2f86828701611ed1565b9150509250925092565b600060208284031215611f4f57611f4e611e89565b5b6000611f5d84828501611ed1565b91505092915050565b600080600060608486031215611f7f57611f7e611e89565b5b6000611f8d86828701611ea5565b9350506020611f9e86828701611ed1565b9250506040611faf86828701611ea5565b9150509250925092565b600081519050919050565b600082825260208201905092915050565b6000819050602082019050919050565b606082016000820151611ffb6000850182611ca0565b50602082015161200e6020850182611ce1565b5060408201516120216040850182611ca0565b50505050565b60006120338383611fe5565b60608301905092915050565b6000602082019050919050565b600061205782611fb9565b6120618185611fc4565b935061206c83611fd5565b8060005b8381101561209d5781516120848882612027565b975061208f8361203f565b925050600181019050612070565b5085935050505092915050565b600060208201905081810360008301526120c4818461204c565b905092915050565b60e0820160008201516120e26000850182611ca0565b5060208201516120f56020850182611ce1565b5060408201516121086040850182611ca0565b50606082015161211b6060850182611d02565b50608082015161212e6080850182611d02565b5060a082015161214160a0850182611ca0565b5060c082015161215460c0850182611d1d565b50505050565b600060e08201905061216f60008301846120cc565b92915050565b7f4e487b7100000000000000000000000000000000000000000000000000000000600052601160045260246000fd5b60006121af82611c96565b91506121ba83611c96565b9250828210156121cd576121cc612175565b5b828203905092915050565b7f4e487b7100000000000000000000000000000000000000000000000000000000600052604160045260246000fd5b600061221282611c96565b915061221d83611c96565b9250827fffffffffffffffffffffffffffffffffffffffffffffffffffffffffffffffff0382111561225257612251612175565b5b828201905092915050565b7f4e487b7100000000000000000000000000000000000000000000000000000000600052603260045260246000fd5b600061229782611c96565b91507fffffffffffffffffffffffffffffffffffffffffffffffffffffffffffffffff8214156122ca576122c9612175565b5b600182019050919050565b600082825260208201905092915050565b7f5265656e7472616e637947756172643a207265656e7472616e742063616c6c00600082015250565b600061231c601f836122d5565b9150612327826122e6565b602082019050919050565b6000602082019050818103600083015261234b8161230f565b9050919050565b7f5072696365206d757374206265206174206c6561737420312077656900000000600082015250565b6000612388601c836122d5565b915061239382612352565b602082019050919050565b600060208201905081810360008301526123b78161237b565b9050919050565b7f596f75206d7573742070617920746865206c697374696e672070726963650000600082015250565b60006123f4601e836122d5565b91506123ff826123be565b602082019050919050565b60006020820190508181036000830152612423816123e7565b9050919050565b61243381611ccf565b82525050565b600060608201905061244e600083018661242a565b61245b602083018561242a565b6124686040830184611e5f565b949350505050565b61247981611d11565b82525050565b6000608082019050612494600083018761242a565b6124a1602083018661242a565b6124ae6040830185611e5f565b6124bb6060830184612470565b95945050505050565b7f546865206974656d20646f6573206e6f74206578697374730000000000000000600082015250565b60006124fa6018836122d5565b9150612505826124c4565b602082019050919050565b60006020820190508181036000830152612529816124ed565b9050919050565b7f596f752063616e6e6f7420626964206f6e20796f7572206f776e206974656d00600082015250565b6000612566601f836122d5565b915061257182612530565b602082019050919050565b6000602082019050818103600083015261259581612559565b9050919050565b7f426964206d757374206265206174206c65617374203120776569000000000000600082015250565b60006125d2601a836122d5565b91506125dd8261259c565b602082019050919050565b60006020820190508181036000830152612601816125c5565b9050919050565b7f596f7520617265206e6f7420746865206f776e6572206f66207468697320697460008201527f656d000000000000000000000000000000000000000000000000000000000000602082015250565b60006126646022836122d5565b915061266f82612608565b604082019050919050565b6000602082019050818103600083015261269381612657565b9050919050565b7f546865206269642073686f756c6420657869737420666f72207468652062757960008201527f6572000000000000000000000000000000000000000000000000000000000000602082015250565b60006126f66022836122d5565b91506127018261269a565b604082019050919050565b60006020820190508181036000830152612725816126e9565b905091905056fea2646970667358221220cfe89ab7855d3b2e50d23f2c11cf63a0630c08b59801379fe3e5908637c9325e64736f6c63430008090033",
  "linkReferences": {},
  "deployedLinkReferences": {}
}