{
  "_format": "hh-sol-artifact-1",
  "contractName": "NFTMarket",
  "sourceName": "contracts/NFTMarket.sol",
  "abi": [
    {
      "inputs": [],
      "stateMutability": "nonpayable",
      "type": "constructor"
    },
    {
      "anonymous": false,
      "inputs": [
        {
          "indexed": true,
          "internalType": "uint256",
          "name": "itemId",
          "type": "uint256"
        },
        {
          "indexed": true,
          "internalType": "address",
          "name": "nftContract",
          "type": "address"
        },
        {
          "indexed": true,
          "internalType": "uint256",
          "name": "tokenId",
          "type": "uint256"
        },
        {
          "indexed": false,
          "internalType": "address",
          "name": "seller",
          "type": "address"
        },
        {
          "indexed": false,
          "internalType": "address",
          "name": "owner",
          "type": "address"
        },
        {
          "indexed": false,
          "internalType": "uint256",
          "name": "price",
          "type": "uint256"
        },
        {
          "indexed": false,
          "internalType": "bool",
          "name": "sold",
          "type": "bool"
        }
      ],
      "name": "MarketItemCreated",
      "type": "event"
    },
    {
      "inputs": [
        {
          "internalType": "uint256",
          "name": "itemId",
          "type": "uint256"
        }
      ],
      "name": "createBid",
      "outputs": [],
      "stateMutability": "payable",
      "type": "function"
    },
    {
      "inputs": [
        {
          "internalType": "address",
          "name": "nftContract",
          "type": "address"
        },
        {
          "internalType": "uint256",
          "name": "tokenId",
          "type": "uint256"
        },
        {
          "internalType": "uint256",
          "name": "price",
          "type": "uint256"
        }
      ],
      "name": "createMarketItem",
      "outputs": [],
      "stateMutability": "payable",
      "type": "function"
    },
    {
      "inputs": [
        {
          "internalType": "address",
          "name": "nftContract",
          "type": "address"
        },
        {
          "internalType": "uint256",
          "name": "itemId",
          "type": "uint256"
        },
        {
          "internalType": "address",
          "name": "buyer",
          "type": "address"
        }
      ],
      "name": "createMarketSale",
      "outputs": [],
      "stateMutability": "payable",
      "type": "function"
    },
    {
      "inputs": [
        {
          "internalType": "uint256",
          "name": "itemId",
          "type": "uint256"
        }
      ],
      "name": "fetchBidsOfItem",
      "outputs": [
        {
          "components": [
            {
              "internalType": "uint256",
              "name": "itemId",
              "type": "uint256"
            },
            {
              "internalType": "address",
              "name": "buyer",
              "type": "address"
            },
            {
              "internalType": "uint256",
              "name": "value",
              "type": "uint256"
            }
          ],
          "internalType": "struct NFTMarket.Bid[]",
          "name": "",
          "type": "tuple[]"
        }
      ],
      "stateMutability": "view",
      "type": "function"
    },
    {
      "inputs": [],
      "name": "fetchItemsCreated",
      "outputs": [
        {
          "components": [
            {
              "internalType": "uint256",
              "name": "itemId",
              "type": "uint256"
            },
            {
              "internalType": "address",
              "name": "nftContract",
              "type": "address"
            },
            {
              "internalType": "uint256",
              "name": "tokenId",
              "type": "uint256"
            },
            {
              "internalType": "address payable",
              "name": "seller",
              "type": "address"
            },
            {
              "internalType": "address payable",
              "name": "owner",
              "type": "address"
            },
            {
              "internalType": "uint256",
              "name": "price",
              "type": "uint256"
            },
            {
              "internalType": "bool",
              "name": "sold",
              "type": "bool"
            }
          ],
          "internalType": "struct NFTMarket.MarketItem[]",
          "name": "",
          "type": "tuple[]"
        }
      ],
      "stateMutability": "view",
      "type": "function"
    },
    {
      "inputs": [],
      "name": "fetchMarketItems",
      "outputs": [
        {
          "components": [
            {
              "internalType": "uint256",
              "name": "itemId",
              "type": "uint256"
            },
            {
              "internalType": "address",
              "name": "nftContract",
              "type": "address"
            },
            {
              "internalType": "uint256",
              "name": "tokenId",
              "type": "uint256"
            },
            {
              "internalType": "address payable",
              "name": "seller",
              "type": "address"
            },
            {
              "internalType": "address payable",
              "name": "owner",
              "type": "address"
            },
            {
              "internalType": "uint256",
              "name": "price",
              "type": "uint256"
            },
            {
              "internalType": "bool",
              "name": "sold",
              "type": "bool"
            }
          ],
          "internalType": "struct NFTMarket.MarketItem[]",
          "name": "",
          "type": "tuple[]"
        }
      ],
      "stateMutability": "view",
      "type": "function"
    },
    {
      "inputs": [],
      "name": "fetchMyNfts",
      "outputs": [
        {
          "components": [
            {
              "internalType": "uint256",
              "name": "itemId",
              "type": "uint256"
            },
            {
              "internalType": "address",
              "name": "nftContract",
              "type": "address"
            },
            {
              "internalType": "uint256",
              "name": "tokenId",
              "type": "uint256"
            },
            {
              "internalType": "address payable",
              "name": "seller",
              "type": "address"
            },
            {
              "internalType": "address payable",
              "name": "owner",
              "type": "address"
            },
            {
              "internalType": "uint256",
              "name": "price",
              "type": "uint256"
            },
            {
              "internalType": "bool",
              "name": "sold",
              "type": "bool"
            }
          ],
          "internalType": "struct NFTMarket.MarketItem[]",
          "name": "",
          "type": "tuple[]"
        }
      ],
      "stateMutability": "view",
      "type": "function"
    },
    {
      "inputs": [
        {
          "internalType": "uint256",
          "name": "itemId",
          "type": "uint256"
        }
      ],
      "name": "getItemById",
      "outputs": [
        {
          "components": [
            {
              "internalType": "uint256",
              "name": "itemId",
              "type": "uint256"
            },
            {
              "internalType": "address",
              "name": "nftContract",
              "type": "address"
            },
            {
              "internalType": "uint256",
              "name": "tokenId",
              "type": "uint256"
            },
            {
              "internalType": "address payable",
              "name": "seller",
              "type": "address"
            },
            {
              "internalType": "address payable",
              "name": "owner",
              "type": "address"
            },
            {
              "internalType": "uint256",
              "name": "price",
              "type": "uint256"
            },
            {
              "internalType": "bool",
              "name": "sold",
              "type": "bool"
            }
          ],
          "internalType": "struct NFTMarket.MarketItem",
          "name": "",
          "type": "tuple"
        }
      ],
      "stateMutability": "view",
      "type": "function"
    },
    {
      "inputs": [],
      "name": "getListingPrice",
      "outputs": [
        {
          "internalType": "uint256",
          "name": "",
          "type": "uint256"
        }
      ],
      "stateMutability": "view",
      "type": "function"
    }
  ],
  "bytecode": "0x60806040526658d15e1762800060045534801561001b57600080fd5b50600160008190555033600360006101000a81548173ffffffffffffffffffffffffffffffffffffffff021916908373ffffffffffffffffffffffffffffffffffffffff160217905550612763806100746000396000f3fe6080604052600436106100865760003560e01c8063659dd2b411610059578063659dd2b414610128578063ad4b6c5214610144578063c915de2e14610160578063cd2f07101461019d578063f064c32e146101da57610086565b80630f08efe01461008b578063128ae712146100b657806312e85585146100e157806358eb2df51461010c575b600080fd5b34801561009757600080fd5b506100a0610205565b6040516100ad9190611e3e565b60405180910390f35b3480156100c257600080fd5b506100cb61048c565b6040516100d89190611e3e565b60405180910390f35b3480156100ed57600080fd5b506100f66107f0565b6040516101039190611e6f565b60405180910390f35b61012660048036038101906101219190611ee7565b6107fa565b005b610142600480360381019061013d9190611f3a565b610b5d565b005b61015e60048036038101906101599190611f67565b610f36565b005b34801561016c57600080fd5b5061018760048036038101906101829190611f3a565b6114ce565b60405161019491906120ab565b60405180910390f35b3480156101a957600080fd5b506101c460048036038101906101bf9190611f3a565b611652565b6040516101d1919061215b565b60405180910390f35b3480156101e657600080fd5b506101ef611862565b6040516101fc9190611e3e565b60405180910390f35b606060006102136001611bc6565b905060006102216002611bc6565b61022b6001611bc6565b61023591906121a5565b90506000808267ffffffffffffffff811115610254576102536121d9565b5b60405190808252806020026020018201604052801561028d57816020015b61027a611bea565b8152602001906001900390816102725790505b50905060005b8481101561048157600560006001836102ac9190612208565b815260200190815260200160002060060160009054906101000a900460ff1661046e5760006001826102de9190612208565b90506000600560008381526020019081526020016000209050806040518060e0016040529081600082015481526020016001820160009054906101000a900473ffffffffffffffffffffffffffffffffffffffff1673ffffffffffffffffffffffffffffffffffffffff1673ffffffffffffffffffffffffffffffffffffffff168152602001600282015481526020016003820160009054906101000a900473ffffffffffffffffffffffffffffffffffffffff1673ffffffffffffffffffffffffffffffffffffffff1673ffffffffffffffffffffffffffffffffffffffff1681526020016004820160009054906101000a900473ffffffffffffffffffffffffffffffffffffffff1673ffffffffffffffffffffffffffffffffffffffff1673ffffffffffffffffffffffffffffffffffffffff168152602001600582015481526020016006820160009054906101000a900460ff1615151515815250508486815181106104515761045061225e565b5b60200260200101819052506001856104699190612208565b945050505b80806104799061228d565b915050610293565b508094505050505090565b6060600061049a6001611bc6565b905060008060005b83811015610543573373ffffffffffffffffffffffffffffffffffffffff16600560006001846104d29190612208565b815260200190815260200160002060040160009054906101000a900473ffffffffffffffffffffffffffffffffffffffff1673ffffffffffffffffffffffffffffffffffffffff1614156105305760018361052d9190612208565b92505b808061053b9061228d565b9150506104a2565b5060008267ffffffffffffffff8111156105605761055f6121d9565b5b60405190808252806020026020018201604052801561059957816020015b610586611bea565b81526020019060019003908161057e5790505b50905060005b848110156107e5573373ffffffffffffffffffffffffffffffffffffffff16600560006001846105cf9190612208565b815260200190815260200160002060040160009054906101000a900473ffffffffffffffffffffffffffffffffffffffff1673ffffffffffffffffffffffffffffffffffffffff1614156107d2576000600560006001846106309190612208565b81526020019081526020016000206000015490506000600560008381526020019081526020016000209050806040518060e0016040529081600082015481526020016001820160009054906101000a900473ffffffffffffffffffffffffffffffffffffffff1673ffffffffffffffffffffffffffffffffffffffff1673ffffffffffffffffffffffffffffffffffffffff168152602001600282015481526020016003820160009054906101000a900473ffffffffffffffffffffffffffffffffffffffff1673ffffffffffffffffffffffffffffffffffffffff1673ffffffffffffffffffffffffffffffffffffffff1681526020016004820160009054906101000a900473ffffffffffffffffffffffffffffffffffffffff1673ffffffffffffffffffffffffffffffffffffffff1673ffffffffffffffffffffffffffffffffffffffff168152602001600582015481526020016006820160009054906101000a900460ff1615151515815250508486815181106107b5576107b461225e565b5b60200260200101819052506001856107cd9190612208565b945050505b80806107dd9061228d565b91505061059f565b508094505050505090565b6000600454905090565b60026000541415610840576040517f08c379a000000000000000000000000000000000000000000000000000000000815260040161083790612333565b60405180910390fd5b60026000819055506000811161088b576040517f08c379a00000000000000000000000000000000000000000000000000000000081526004016108829061239f565b60405180910390fd5b60045434146108cf576040517f08c379a00000000000000000000000000000000000000000000000000000000081526004016108c69061240b565b60405180910390fd5b6108d96001611bd4565b60006108e56001611bc6565b90506040518060e001604052808281526020018573ffffffffffffffffffffffffffffffffffffffff1681526020018481526020013373ffffffffffffffffffffffffffffffffffffffff1681526020013373ffffffffffffffffffffffffffffffffffffffff16815260200183815260200160001515815250600560008381526020019081526020016000206000820151816000015560208201518160010160006101000a81548173ffffffffffffffffffffffffffffffffffffffff021916908373ffffffffffffffffffffffffffffffffffffffff1602179055506040820151816002015560608201518160030160006101000a81548173ffffffffffffffffffffffffffffffffffffffff021916908373ffffffffffffffffffffffffffffffffffffffff16021790555060808201518160040160006101000a81548173ffffffffffffffffffffffffffffffffffffffff021916908373ffffffffffffffffffffffffffffffffffffffff16021790555060a0820151816005015560c08201518160060160006101000a81548160ff0219169083151502179055509050508373ffffffffffffffffffffffffffffffffffffffff166323b872dd3330866040518463ffffffff1660e01b8152600401610ac59392919061243a565b600060405180830381600087803b158015610adf57600080fd5b505af1158015610af3573d6000803e3d6000fd5b50505050828473ffffffffffffffffffffffffffffffffffffffff16827f045dfa01dcba2b36aba1d3dc4a874f4b0c5d2fbeb8d2c4b34a7d88c8d8f929d1336000876000604051610b479493929190612480565b60405180910390a4506001600081905550505050565b60026000541415610ba3576040517f08c379a0000000000000000000000000000000000000000000000000000000008152600401610b9a90612333565b60405180910390fd5b600260008190555080600073ffffffffffffffffffffffffffffffffffffffff166005600083815260200190815260200160002060030160009054906101000a900473ffffffffffffffffffffffffffffffffffffffff1673ffffffffffffffffffffffffffffffffffffffff161415610c52576040517f08c379a0000000000000000000000000000000000000000000000000000000008152600401610c4990612511565b60405180910390fd5b6005600083815260200190815260200160002060040160009054906101000a900473ffffffffffffffffffffffffffffffffffffffff1673ffffffffffffffffffffffffffffffffffffffff163373ffffffffffffffffffffffffffffffffffffffff161415610cf7576040517f08c379a0000000000000000000000000000000000000000000000000000000008152600401610cee9061257d565b60405180910390fd5b60003411610d3a576040517f08c379a0000000000000000000000000000000000000000000000000000000008152600401610d31906125e9565b60405180910390fd5b6000805b6006600085815260200190815260200160002080549050811015610e51573373ffffffffffffffffffffffffffffffffffffffff16600660008681526020019081526020016000208281548110610d9857610d9761225e565b5b906000526020600020906003020160010160009054906101000a900473ffffffffffffffffffffffffffffffffffffffff1673ffffffffffffffffffffffffffffffffffffffff161415610e3e5734600660008681526020019081526020016000208281548110610e0c57610e0b61225e565b5b90600052602060002090600302016002016000828254610e2c9190612208565b92505081905550600191505050610f2a565b8080610e499061228d565b915050610d3e565b5080610f2857600060405180606001604052808581526020013373ffffffffffffffffffffffffffffffffffffffff168152602001348152509050600660008581526020019081526020016000208190806001815401808255809150506001900390600052602060002090600302016000909190919091506000820151816000015560208201518160010160006101000a81548173ffffffffffffffffffffffffffffffffffffffff021916908373ffffffffffffffffffffffffffffffffffffffff160217905550604082015181600201555050505b505b50600160008190555050565b60026000541415610f7c576040517f08c379a0000000000000000000000000000000000000000000000000000000008152600401610f7390612333565b60405180910390fd5b6002600081905550816005600082815260200190815260200160002060040160009054906101000a900473ffffffffffffffffffffffffffffffffffffffff1673ffffffffffffffffffffffffffffffffffffffff163373ffffffffffffffffffffffffffffffffffffffff1614611029576040517f08c379a00000000000000000000000000000000000000000000000000000000081526004016110209061267b565b60405180910390fd5b60008060005b6006600087815260200190815260200160002080549050811015611128578473ffffffffffffffffffffffffffffffffffffffff166006600088815260200190815260200160002082815481106110895761108861225e565b5b906000526020600020906003020160010160009054906101000a900473ffffffffffffffffffffffffffffffffffffffff1673ffffffffffffffffffffffffffffffffffffffff1614156111155760019250600660008781526020019081526020016000208181548110611100576110ff61225e565b5b90600052602060002090600302016002015491505b80806111209061228d565b91505061102f565b506001151582151514611170576040517f08c379a00000000000000000000000000000000000000000000000000000000081526004016111679061270d565b60405180910390fd5b6005600086815260200190815260200160002060030160009054906101000a900473ffffffffffffffffffffffffffffffffffffffff1673ffffffffffffffffffffffffffffffffffffffff166108fc829081150290604051600060405180830381858888f193505050501580156111ec573d6000803e3d6000fd5b508573ffffffffffffffffffffffffffffffffffffffff166323b872dd3086886040518463ffffffff1660e01b815260040161122a9392919061243a565b600060405180830381600087803b15801561124457600080fd5b505af1158015611258573d6000803e3d6000fd5b50505050836005600087815260200190815260200160002060040160006101000a81548173ffffffffffffffffffffffffffffffffffffffff021916908373ffffffffffffffffffffffffffffffffffffffff16021790555060016005600087815260200190815260200160002060060160006101000a81548160ff0219169083151502179055506112ea6002611bd4565b600360009054906101000a900473ffffffffffffffffffffffffffffffffffffffff1673ffffffffffffffffffffffffffffffffffffffff166108fc6004549081150290604051600060405180830381858888f19350505050158015611354573d6000803e3d6000fd5b5060005b60066000878152602001908152602001600020805490508110156114bd57600060066000888152602001908152602001600020828154811061139d5761139c61225e565b5b9060005260206000209060030201604051806060016040529081600082015481526020016001820160009054906101000a900473ffffffffffffffffffffffffffffffffffffffff1673ffffffffffffffffffffffffffffffffffffffff1673ffffffffffffffffffffffffffffffffffffffff16815260200160028201548152505090508573ffffffffffffffffffffffffffffffffffffffff16816020015173ffffffffffffffffffffffffffffffffffffffff16146114a957806020015173ffffffffffffffffffffffffffffffffffffffff166108fc82604001519081150290604051600060405180830381858888f193505050501580156114a7573d6000803e3d6000fd5b505b5080806114b59061228d565b915050611358565b505050506001600081905550505050565b606081600073ffffffffffffffffffffffffffffffffffffffff166005600083815260200190815260200160002060030160009054906101000a900473ffffffffffffffffffffffffffffffffffffffff1673ffffffffffffffffffffffffffffffffffffffff161415611577576040517f08c379a000000000000000000000000000000000000000000000000000000000815260040161156e90612511565b60405180910390fd5b60066000848152602001908152602001600020805480602002602001604051908101604052809291908181526020016000905b828210156116465783829060005260206000209060030201604051806060016040529081600082015481526020016001820160009054906101000a900473ffffffffffffffffffffffffffffffffffffffff1673ffffffffffffffffffffffffffffffffffffffff1673ffffffffffffffffffffffffffffffffffffffff168152602001600282015481525050815260200190600101906115aa565b50505050915050919050565b61165a611bea565b81600073ffffffffffffffffffffffffffffffffffffffff166005600083815260200190815260200160002060030160009054906101000a900473ffffffffffffffffffffffffffffffffffffffff1673ffffffffffffffffffffffffffffffffffffffff161415611701576040517f08c379a00000000000000000000000000000000000000000000000000000000081526004016116f890612511565b60405180910390fd5b600560008481526020019081526020016000206040518060e0016040529081600082015481526020016001820160009054906101000a900473ffffffffffffffffffffffffffffffffffffffff1673ffffffffffffffffffffffffffffffffffffffff1673ffffffffffffffffffffffffffffffffffffffff168152602001600282015481526020016003820160009054906101000a900473ffffffffffffffffffffffffffffffffffffffff1673ffffffffffffffffffffffffffffffffffffffff1673ffffffffffffffffffffffffffffffffffffffff1681526020016004820160009054906101000a900473ffffffffffffffffffffffffffffffffffffffff1673ffffffffffffffffffffffffffffffffffffffff1673ffffffffffffffffffffffffffffffffffffffff168152602001600582015481526020016006820160009054906101000a900460ff161515151581525050915050919050565b606060006118706001611bc6565b905060008060005b83811015611919573373ffffffffffffffffffffffffffffffffffffffff16600560006001846118a89190612208565b815260200190815260200160002060030160009054906101000a900473ffffffffffffffffffffffffffffffffffffffff1673ffffffffffffffffffffffffffffffffffffffff161415611906576001836119039190612208565b92505b80806119119061228d565b915050611878565b5060008267ffffffffffffffff811115611936576119356121d9565b5b60405190808252806020026020018201604052801561196f57816020015b61195c611bea565b8152602001906001900390816119545790505b50905060005b84811015611bbb573373ffffffffffffffffffffffffffffffffffffffff16600560006001846119a59190612208565b815260200190815260200160002060030160009054906101000a900473ffffffffffffffffffffffffffffffffffffffff1673ffffffffffffffffffffffffffffffffffffffff161415611ba857600060056000600184611a069190612208565b81526020019081526020016000206000015490506000600560008381526020019081526020016000209050806040518060e0016040529081600082015481526020016001820160009054906101000a900473ffffffffffffffffffffffffffffffffffffffff1673ffffffffffffffffffffffffffffffffffffffff1673ffffffffffffffffffffffffffffffffffffffff168152602001600282015481526020016003820160009054906101000a900473ffffffffffffffffffffffffffffffffffffffff1673ffffffffffffffffffffffffffffffffffffffff1673ffffffffffffffffffffffffffffffffffffffff1681526020016004820160009054906101000a900473ffffffffffffffffffffffffffffffffffffffff1673ffffffffffffffffffffffffffffffffffffffff1673ffffffffffffffffffffffffffffffffffffffff168152602001600582015481526020016006820160009054906101000a900460ff161515151581525050848681518110611b8b57611b8a61225e565b5b6020026020010181905250600185611ba39190612208565b945050505b8080611bb39061228d565b915050611975565b508094505050505090565b600081600001549050919050565b6001816000016000828254019250508190555050565b6040518060e0016040528060008152602001600073ffffffffffffffffffffffffffffffffffffffff16815260200160008152602001600073ffffffffffffffffffffffffffffffffffffffff168152602001600073ffffffffffffffffffffffffffffffffffffffff168152602001600081526020016000151581525090565b600081519050919050565b600082825260208201905092915050565b6000819050602082019050919050565b6000819050919050565b611caa81611c97565b82525050565b600073ffffffffffffffffffffffffffffffffffffffff82169050919050565b6000611cdb82611cb0565b9050919050565b611ceb81611cd0565b82525050565b6000611cfc82611cb0565b9050919050565b611d0c81611cf1565b82525050565b60008115159050919050565b611d2781611d12565b82525050565b60e082016000820151611d436000850182611ca1565b506020820151611d566020850182611ce2565b506040820151611d696040850182611ca1565b506060820151611d7c6060850182611d03565b506080820151611d8f6080850182611d03565b5060a0820151611da260a0850182611ca1565b5060c0820151611db560c0850182611d1e565b50505050565b6000611dc78383611d2d565b60e08301905092915050565b6000602082019050919050565b6000611deb82611c6b565b611df58185611c76565b9350611e0083611c87565b8060005b83811015611e31578151611e188882611dbb565b9750611e2383611dd3565b925050600181019050611e04565b5085935050505092915050565b60006020820190508181036000830152611e588184611de0565b905092915050565b611e6981611c97565b82525050565b6000602082019050611e846000830184611e60565b92915050565b600080fd5b611e9881611cd0565b8114611ea357600080fd5b50565b600081359050611eb581611e8f565b92915050565b611ec481611c97565b8114611ecf57600080fd5b50565b600081359050611ee181611ebb565b92915050565b600080600060608486031215611f0057611eff611e8a565b5b6000611f0e86828701611ea6565b9350506020611f1f86828701611ed2565b9250506040611f3086828701611ed2565b9150509250925092565b600060208284031215611f5057611f4f611e8a565b5b6000611f5e84828501611ed2565b91505092915050565b600080600060608486031215611f8057611f7f611e8a565b5b6000611f8e86828701611ea6565b9350506020611f9f86828701611ed2565b9250506040611fb086828701611ea6565b9150509250925092565b600081519050919050565b600082825260208201905092915050565b6000819050602082019050919050565b606082016000820151611ffc6000850182611ca1565b50602082015161200f6020850182611ce2565b5060408201516120226040850182611ca1565b50505050565b60006120348383611fe6565b60608301905092915050565b6000602082019050919050565b600061205882611fba565b6120628185611fc5565b935061206d83611fd6565b8060005b8381101561209e5781516120858882612028565b975061209083612040565b925050600181019050612071565b5085935050505092915050565b600060208201905081810360008301526120c5818461204d565b905092915050565b60e0820160008201516120e36000850182611ca1565b5060208201516120f66020850182611ce2565b5060408201516121096040850182611ca1565b50606082015161211c6060850182611d03565b50608082015161212f6080850182611d03565b5060a082015161214260a0850182611ca1565b5060c082015161215560c0850182611d1e565b50505050565b600060e08201905061217060008301846120cd565b92915050565b7f4e487b7100000000000000000000000000000000000000000000000000000000600052601160045260246000fd5b60006121b082611c97565b91506121bb83611c97565b9250828210156121ce576121cd612176565b5b828203905092915050565b7f4e487b7100000000000000000000000000000000000000000000000000000000600052604160045260246000fd5b600061221382611c97565b915061221e83611c97565b9250827fffffffffffffffffffffffffffffffffffffffffffffffffffffffffffffffff0382111561225357612252612176565b5b828201905092915050565b7f4e487b7100000000000000000000000000000000000000000000000000000000600052603260045260246000fd5b600061229882611c97565b91507fffffffffffffffffffffffffffffffffffffffffffffffffffffffffffffffff8214156122cb576122ca612176565b5b600182019050919050565b600082825260208201905092915050565b7f5265656e7472616e637947756172643a207265656e7472616e742063616c6c00600082015250565b600061231d601f836122d6565b9150612328826122e7565b602082019050919050565b6000602082019050818103600083015261234c81612310565b9050919050565b7f5072696365206d757374206265206174206c6561737420312077656900000000600082015250565b6000612389601c836122d6565b915061239482612353565b602082019050919050565b600060208201905081810360008301526123b88161237c565b9050919050565b7f596f75206d7573742070617920746865206c697374696e672070726963650000600082015250565b60006123f5601e836122d6565b9150612400826123bf565b602082019050919050565b60006020820190508181036000830152612424816123e8565b9050919050565b61243481611cd0565b82525050565b600060608201905061244f600083018661242b565b61245c602083018561242b565b6124696040830184611e60565b949350505050565b61247a81611d12565b82525050565b6000608082019050612495600083018761242b565b6124a2602083018661242b565b6124af6040830185611e60565b6124bc6060830184612471565b95945050505050565b7f546865206974656d20646f6573206e6f74206578697374730000000000000000600082015250565b60006124fb6018836122d6565b9150612506826124c5565b602082019050919050565b6000602082019050818103600083015261252a816124ee565b9050919050565b7f596f752063616e6e6f7420626964206f6e20796f7572206f776e206974656d00600082015250565b6000612567601f836122d6565b915061257282612531565b602082019050919050565b600060208201905081810360008301526125968161255a565b9050919050565b7f426964206d757374206265206174206c65617374203120776569000000000000600082015250565b60006125d3601a836122d6565b91506125de8261259d565b602082019050919050565b60006020820190508181036000830152612602816125c6565b9050919050565b7f596f7520617265206e6f7420746865206f776e6572206f66207468697320697460008201527f656d000000000000000000000000000000000000000000000000000000000000602082015250565b60006126656022836122d6565b915061267082612609565b604082019050919050565b6000602082019050818103600083015261269481612658565b9050919050565b7f546865206269642073686f756c6420657869737420666f72207468652062757960008201527f6572000000000000000000000000000000000000000000000000000000000000602082015250565b60006126f76022836122d6565b91506127028261269b565b604082019050919050565b60006020820190508181036000830152612726816126ea565b905091905056fea264697066735822122003daad88ca703dfce6162a4e8d4c86c874de1f080da0648426102d5cb3cda35a64736f6c63430008090033",
  "linkReferences": {},
  "deployedLinkReferences": {}
}